:020000040800F2
:10000000C80F00202D0200082D240008E12200085E
:1000100029240008110500085933000800000000D9
:10002000000000000000000000000000E9250008BA
:100030001505000800000000312400080D26000806
:10004000470200084702000847020008470200086C
:10005000470200084702000847020008470200085C
:10006000470200084702000847020008470200084C
:10007000470200084702000847020008470200083C
:10008000470200084702000847020008470200082C
:10009000470200084702000847020008470200081C
:1000A000470200084702000847020008470200080C
:1000B000470200080000000000000000470200089E
:1000C000470200080000000000000000470200088E
:1000D000000000004D330008470200080000000047
:1000E000470200084702000800000000000000006E
:1000F0000000000000000000000000000000000000
:10010000000000000000000000000000470200089E
:10011000000000000000000047020008470200083D
:10012000470200084702000847020008470200088B
:10013000470200080000000000000000000000006E
:10014000470200084702000847020008470200086B
:10015000470200084702000847020008470200085B
:10016000470200084702000847020008000000009C
:1001700047020008470200080000000000000000DD
:1001800047020008470200084702000800F002F892
:1001900000F03CF80AA090E8000C82448344AAF1E5
:1001A0000107DA4501D100F031F8AFF2090EBAE8E3
:1001B0000F0013F0010F18BFFB1A43F0010318479B
:1001C0000C3600002C360000103A24BF78C878C1E5
:1001D000FAD8520724BF30C830C144BF04680C604D
:1001E000704700000023002400250026103A28BF95
:1001F00078C1FBD8520728BF30C148BF0B60704799
:100200001FB503F07BFA1FBD10B510BD00F045F916
:100210001146FFF7F5FF03F0B1F800F063F903B4FE
:10022000FFF7F2FF03BC00F06BF9000009488047BC
:1002300009480047FEE7FEE7FEE7FEE7FEE7FEE7C8
:10024000FEE7FEE7FEE7FEE704480549054A064BE0
:1002500070470000B92600088D010008C809002079
:10026000C80F0020C80B0020C80B002053EA020C66
:1002700000F069802DE9F04B4FF00006002B1FBF06
:10028000B3FA83F503FA05F424FA05F65E4012BFCB
:100290001643B2FA82F502FA05F4C5F120051EBF35
:1002A00022FA05FC44EA0C04203556EA044C4FEAD5
:1002B000144418BF641C4FF000084FF0000990422E
:1002C00071EB030C39D3002919BFB1FA81F701FA98
:1002D00007F6B0FA80F700FA07F6C7F120071EBF4D
:1002E00020FA07FC46EA0C062037B6FBF4FCA7EB25
:1002F0000507103F07F01F0BCBF120062CFA06F67E
:100300000CFA0BFB44BFB3460026202FA4BF5E4669
:100310004FF0000B5BEA060C08BF4FF0010B19EB26
:100320000B0948EB0608ABFB027C06FB02CC0BFB7F
:1003300003CCC01B71EB0C01C1E70B4602464146E2
:100340004846BDE8F08B13B5084318BF4FF0FF30A7
:100350000146AFF30080BDE81C40704710B504466D
:1003600003E002F0FBFF401C09D014F8010B054923
:100370000028F6D1BDE810400A2002F0EFBF4FF090
:10038000FF3010BD8400002010B5431C02E010F8BF
:10039000011B71B18107FAD14FF0013202C88C1AEA
:1003A0008C4314EAC211F9D0C01A0A0603D0C01E49
:1003B00010BDC01A10BD0A0401D0801E10BD090274
:1003C000FCD0401E10BD4FF0000200B5134694460D
:1003D0009646203922BFA0E80C50A0E80C50B1F19D
:1003E0002001BFF4F7AF090728BFA0E80C5048BFB1
:1003F0000CC05DF804EB890028BF40F8042B08BF4F
:10040000704748BF20F8022B11F0804F18BF00F84A
:10041000012B70470000000030B44FF0013C50F851
:10042000042B51F8043BCCFA52F4D51A20D1FCB974
:1004300050F8042B51F8043BCCFA52F4D51A17D1DA
:10044000B4B950F8042B51F8043BCCFA52F4D51A45
:100450000ED16CB950F8042B51F8043BCCFA52F48D
:10046000D51A05D1002CDAD030BC4FF0000070470F
:1004700029BAB1FA81F111F01801D1F120008440BC
:10048000F2D1CA40CB4012F0FF0213F0FF0330BCA0
:10049000D01A7047704770477047754600F02CF8C7
:1004A000AE4605006946534620F00700854618B061
:1004B00020B5FFF7C9FEBDE820404FF000064FF021
:1004C00000074FF000084FF0000BAC46ACE8C00945
:1004D000ACE8C009ACE8C009ACE8C00921F00701EC
:1004E0008D46704710B50446AFF300802046BDE846
:1004F0001040FFF794BE0000004870471000002035
:1005000001491820ABBEFEE726000200704700003C
:10051000FEE7000070470000EFF3108072B600BFE6
:10052000FEE70000014690F82500022818D108686F
:10053000D1E910C3026822F00E020260026822F0C4
:100540000102026003F01C00012202FA00F0CCF864
:100550000400002081F82520002281F82420704723
:100560000420C8630120002281F824207047000085
:1005700080B590F82510022922D10168D0F838E022
:10058000D0E910C30A68BEF1000F22F00E020A6023
:100590000A6822F001020A6003F01C014FF0010218
:1005A00002FA01F1CCF804104FF0000180F8252088
:1005B00080F8241001D0F0470021084680BD00BF1C
:1005C0000421C163012080BDB0B5044600F0F0F8FD
:1005D000054640F20000C2F200000078611C18BF1E
:1005E000044400BF00F0E4F8401BA042FAD3B0BDC1
:1005F0002DE9F04F82B00D68002D00F0CD8040F263
:10060000004E40F60002C4F2010EC4F600020723B9
:10061000002401264FF0000C0027904208BF02235F
:1006200000934CE040F20042C4F60002DDF800A066
:10063000904208BF4FF0010A0CF00C030F259D40BB
:1006400029EA05050AFA03F3BA082B434BF82230CE
:10065000DEF808204B6842EA080540F20C49DE0249
:1006600058BF22EA0805CEF80850C4F20109D9F8AB
:1006700000209E0242EA080558BF22EA0805C9F890
:100680000050DEF804209E0342EA080558BF22EA23
:100690000805CEF80450DEF80020012642EA0805DD
:1006A000DB0358BF22EA0805CEF800500D68013779
:1006B00035FA07F20CF1040C04F102046CD006FACE
:1006C00007F215EA0208F1D0D1F804A003250AF0D8
:1006D000030BABF10103A540012B6FEA05090FD80D
:1006E0008368CD6803EA0903A5402B438360436810
:1006F00023EA0202CAF30013BB401A43426005E03A
:10070000BBF1030F02D14FF0030B20E0C2688B68EE
:1007100002EA0902A3401A43BBF1020FC26016D1DC
:100720006FF0030202EA570202440CF01C050F238B
:10073000D2F820A003FA05FB0B692AEA0B0AAB40AA
:1007400043EA0A031362D1F804A00AF0030B02681B
:100750000BFA04F302EA09021A431AF4403F02605A
:10076000A4D041F26003C4F202031A68AEF57E7BA6
:1007700042F001021A601A68B0F1904F02F00102D3
:100780000192019A27F003025BF802907FF44AAFCE
:100790004FF0000A50E700BF02B000F000B830BCD4
:1007A000BDE8C08F1823002A08BF2823C150704716
:1007B00040F6C410C2F200000068704770B568B31C
:1007C00004460068D4E901124CF6CC43036045F2BC
:1007D0005553036041608260FFF7EAFF2168CA68F1
:1007E000520711D0054641F6020602E0C8684007EC
:1007F0000AD0FFF7DDFF401B2168B042F6D3C8687E
:100800004007F3D0032070BD0A69E068824212BF3E
:1008100008614AF6AA200860002070BD012070BD62
:1008200001684AF6AA2200200A60704740F20000E0
:1008300040F6C411C2F20000C2F2000100780A685A
:10084000104408607047000080B5032000F08CF869
:10085000002000F009F800281CBF012080BD00F036
:1008600029F8002080BD000070B540F20006C2F2F9
:1008700000063178E1B1044640F20800C2F20000FF
:100880004FF47A720068B2FBF1F1B0FBF1F000F0C6
:10089000D3FF0F2C4FF0010508D838B94FF0FF30C7
:1008A00021460022002500F033F87460284670BD10
:1008B000012070BD82B041F25800C4F2020081688C
:1008C00041F001018160816801F00101019101990C
:1008D000016841F080510160006800F08050009094
:1008E000009802B070470000002848BF7047C1B2AE
:1008F00000F01F00012202FA00F04EF20012CEF2C8
:10090000000242EAD10121F00301086070470000B3
:1009100010B54EF60C5CCEF2000CDCF80030C3F3E0
:10092000022E8EF00704042C28BF0424BEF103031A
:100930004FF0FF3E0EFA04F438BF0023A143994064
:100940000EFA03F39A43114300F00F0200F16043E3
:100950000901043A03F564436244002848BF02F1E8
:100960000C03197010BD00004EF60C51CEF20001C0
:100970000A684FF6FF031A4060F30A2242F08060D3
:1009800040F0FD700860704747F20001C4F20001BA
:100990000A68B0F5007F02F4C06031D1B0F5007F85
:1009A0002CD00868012262F34A20086040F2080057
:1009B000C2F200000068322250434DF68362C4F256
:1009C0001B32A0FB0202900C4A69520511D5421C51
:1009D0000FD04A6952050CD558B14A69520508D55D
:1009E000012806D04A69520503D50228A0F1040067
:1009F000EAD14869400544BF032070470020704792
:100A0000B0F5806FFAD00868022262F34A200860CD
:100A10000020704747F20000C4F20000006800F4B4
:100A2000C060704747F20000C4F20000016841F462
:100A3000807101607047000041F20000C4F20200C2
:100A4000016841F004010160704700002DE9F043A6
:100A500081B00446407841F288070007C4F20207DB
:100A60001ED5E06B80B1B0F5400F14D0B0F5000F8B
:100A700040F0148157F87C0C40F4803047F87C0C2F
:100A80004FF4000007E000BF201D002101F0F6FC3C
:100A9000814638B9E06B396821F440010843386079
:100AA0004FF00009A078800752D557F8300C10F0AD
:100AB00080580BD157F8300C40F0805047F8300C7C
:100AC00057F8300C00F080500090009847F2000575
:100AD000C4F20005286840F480702860FFF768FEC3
:100AE000064600BF2868C00508D4FFF761FE801BDA
:100AF0000228F7D94FF0030921E000BFB9F1000F38
:100B00001DD1B86810F4407011D0216D88420BD00F
:100B1000B868B96820F4407041F48031B960B968B0
:100B200021F48031B960B860C00740F0BF80B86878
:100B3000216D20F4407008434FF00009B860B8F10F
:100B4000000F05D157F8300C20F0805047F8300CDA
:100B50002168C8070ED1880714D488061AD48805DE
:100B600020D4480526D448062CD4C80532D488049D
:100B700038D449E03868226A20F003001043386016
:100B80008807EAD53868626A20F00C0010433860A4
:100B90008806E4D53868A26A20F4406010433860C3
:100BA0008805DED53868626B20F440201043386039
:100BB0004805D8D53868A26B20F44010104338603F
:100BC0004806D2D53868E26A20F4405010433860B5
:100BD000C805CCD53868226B20F44030104338600B
:100BE000880411D53A68206C22F040620243B0F1CB
:100BF000806F3A601ED0B0F1006F05D157F87C0CC1
:100C000040F4801047F87C0C480327D53A68606CA4
:100C100022F040620243B0F1806F3A6016D0B0F12A
:100C2000006F1BD157F87C0C40F4801047F87C0C07
:100C300014E000BF201D012101F020FC21680028E4
:100C400018BF81464803E1D408E000BF201D012100
:100C500001F014FC2168002818BF8146480410D513
:100C60003868A26C20F040501043B2F1805F3860C9
:100C700007D1201D022101F001FC2168002818BFC6
:100C80008146080405D53868E16C20F080400843AF
:100C90003860484601B0BDE8F08300BF4FF001095D
:100CA000A07880073FF501AF52E700BFFFF780FD56
:100CB000064641F288354FF0030900BFB868800747
:100CC0003FF535AFFFF774FD801BA842F6D936E734
:100CD0002DE9F04381B000286BD042F20008C4F245
:100CE00002080446D8F800000D4600F007008842CC
:100CF0000CD2D8F8000020F007002843C8F8000004
:100D0000D8F8000000F00700A84252D1206841F254
:100D1000080910F00201C4F202090DD0A268D9F846
:100D2000003003F0F0039A4206D9D9F8003023F0DE
:100D3000F0031A43C9F80020C2072DD169B1A16898
:100D4000D9F8002002F0F002914206D2D9F8002032
:100D500022F0F0021143C9F80010D8F8001001F099
:100D60000701A9420CD9D8F8001021F00701294346
:100D7000C8F80010D8F8001001F00701A94218D1F6
:100D800041071BD4000723D4D9F80000D9F8041078
:100D900010F00C002CD131E0606800285ED00228F1
:100DA00000F07E80032840F0818059F8081C8901FA
:100DB00058D4012001B0BDE8F08300BFD9F800107D
:100DC000E26821F4E0611143C9F800100007DBD5A7
:100DD000D9F80000216920F4605040EAC100C9F848
:100DE0000000D9F80000D9F8041010F00C0005D06C
:100DF0000C2829D101F00301012925D159F8081C3B
:100E0000090703D4D9F88C10090A02E059F8081C24
:100E1000090943F2307201F00F01C0F6000252F8E6
:100E2000211000280A4618BF00220C2871D1D9F8D9
:100E3000040000F00300022846D0032804BF41F25A
:100E40000021C0F27A0143E0042857D008285BD182
:100E500041F20022C0F27A025BE000BF59F8081CA0
:100E60008907A6D5D9F8001021F003010843C9F875
:100E70000000FFF79DFC064641F28837D9F80000D4
:100E8000616800F00C00B0EB810F15D0FFF790FC0B
:100E9000801BB842F2D9032001B0BDE8F08300BF47
:100EA00059F8081C89037FF584AFDBE759F8081C63
:100EB00049057FF57EAFD5E7206800F002010029E3
:100EC0007FF43DAF49E700BF42F20041C0F2F401B8
:100ED000D9F80400D9F80420C0F30210C2F30622A6
:100EE0005143D9F804200130B1FBF0F0C2F3416165
:100EF000022202EB4101B0FBF1F20AE042F20042B1
:100F0000C0F2F40205E000BF002200210C283FF4EB
:100F10008EAFD9F8000043F21671C0F30310C0F68B
:100F20000001085C00F01F0022FA00F140F204000A
:100F3000C2F2000040F208020068C2F20002116032
:100F400001B0BDE8F043FFF78FBC000040F208009D
:100F500041F20801C2F20000C4F20201006809680F
:100F600043F22672C1F30221C0F60002515C01F087
:100F70001F01C8407047000040F2080041F208011C
:100F8000C2F20000C4F202010068096843F226724E
:100F9000C1F3C221C0F60002515C01F01F01C8403C
:100FA0007047000041F20C01C4F2020151F8040C38
:100FB00010F00C02086805D00C2A29D100F00300BB
:100FC000012825D151F80C0C000703D4D1F8880072
:100FD000000A02E051F80C0C000943F2307300F0F3
:100FE0000F00C0F6000353F82030002A184618BF3F
:100FF00000200C2A18BF7047086800F00300022880
:1010000010D0032804BF41F20023C0F27A030DE0A0
:10101000042A1FD0082A23D141F20020C0F27A000E
:10102000704700BF42F20043C0F2F40308680A6848
:10103000C0F30210C2F30622096801305A43B2FB22
:10104000F0F0C1F34161022202EB4101B0FBF1F08B
:10105000704700BF42F20040C0F2F400704700BF8A
:1010600000200023C5E700002DE9F04383B00028ED
:1010700000F0388341F200060446C4F20206B0686C
:10108000F168227800F00C09D00601F003081DD4A5
:101090002078C00700F08180B9F1080F76D0B9F14F
:1010A0000C0F08BFB8F1030F70D06068B0F5803F37
:1010B00007D0B0F5A02F40F04B82306840F480207C
:1010C0003060306840F4803030604CE2B9F1000F9D
:1010D0001ED0B9F10C0F08BFB8F1010F18D0A169EB
:1010E0003068002900F0968140F001003060FFF781
:1010F0005FFB05463068800700F19E81FFF758FBD3
:10110000401B02284FF00300F4D903B0BDE8F08380
:101110003068800703D5A069002800F0E382256AC3
:101120003068000700F13E81D6F89400000900F015
:10113000F000854200F23C813068B9F1000F40F0C8
:1011400008003060306820F0F00040EA05003060B0
:101150007068E16920F47F4040EA0120706040F04F
:10116000AF82B06DC00000F14B82B06D40F0805096
:10117000B065B06D00F0805002900298FFF74AFC15
:10118000B16D21F08051B1653CE200BF3068800351
:1011900003D56068002800F0A582207880072DD54F
:1011A000B9F1040F1CD0B9F10C0F08BFB8F1020F50
:1011B00016D0E1683068002900F0E48140F48070C6
:1011C0003060FFF7F5FA0546306840050FD4FFF7A9
:1011D000EFFA401B02284FF00300F5D995E700BF56
:1011E0003068400503D5E068002800F07B82706815
:1011F000216920F0F85040EA016070602078000713
:1012000060D42078400775D42078800600F1AE8045
:10121000A06A002800F00C83022840F01F81F068CB
:10122000E16A00F003028A4240F03081226B6FF0E5
:101230000F0300F0700103EB0212914240F026818F
:10124000616B00F4FE42B2EB012F40F01F81A16BF5
:1012500000F07842B2EBC16F40F01881E26B0023DE
:10126000CFF6E07303EA025200F4C001A2F50012C7
:10127000914240F00B81216C4FF07E4202EA016105
:1012800000F0C06001F17E41884240F0FF8030688C
:10129000800100F1CD82306840F080703060F068ED
:1012A00040F08070F060FFF783FA044630688001F8
:1012B00000F1BE82FFF77CFA001B02284FF003000A
:1012C000F4D922E76169D6F89400002900F08C80F7
:1012D00040F00100C6F89400FFF76AFA054600BF27
:1012E000D6F8940080078CD4FFF762FA401B0228DE
:1012F000F6D929E1B06D10F0805808D1B06D40F0FA
:101300008050B065B06D00F080500090009847F2BA
:101310000007C4F200073868C00513D4386840F4E9
:1013200080703860FFF744FA054600BF3868C00592
:1013300008D4FFF73DFA401B02284FF00300F5D90F
:10134000E3E600BFA068012808D0052840F0DE8051
:10135000D6F8900040F00400C6F89000D6F890004F
:1013600040F00100C6F89000DFE000BF616AD6F8E7
:101370009800002900F0B48040F00100C6F8980001
:10138000FFF716FA054600BFD6F8980080073FF52C
:101390003FAFFFF70DFA401B02284FF00300F3D9CF
:1013A000B3E600BF306800F0F00085427FF6C4AEBF
:1013B000B06DC00000F18680B06D40F08050B06527
:1013C000B06D00F0805001900198FFF723FBB16DE4
:1013D00021F08051B165B0F5007F79D0802D40F2C9
:1013E000E3800320EBE000BF20F00100C6F894008A
:1013F000FFF7DEF9054600BFD6F8940080077FF5B9
:1014000000AFFFF7D5F9401B02284FF00300F3D9D6
:101410007BE600BF20F001003060FFF7C9F9054608
:10142000306880077FF534AEFFF7C2F9401B022811
:101430004FF00300F4D968E6306840F008003060EF
:101440003068D4E9072120F0F0000843306070686C
:1014500020F47F4040EA0220706019E6B9F10C0FD9
:1014600000F04081306820F080703060FFF7A0F914
:10147000044600BF3068800140F1EE80FFF798F924
:10148000001B02284FF00300F4D93EE6B9F10C0F1F
:1014900000F028813068400100F12481306820F09C
:1014A00080703060FFF784F905463068800140F1B4
:1014B0008181FFF77DF9401B02284FF00300F4D92A
:1014C00023E600BFFFF7A6FAB0F5007F7FF486AFF2
:1014D000812D73D30120A02D88BF02206FE000BFB3
:1014E00020F00100C6F89800FFF762F9054600BF3A
:1014F000D6F8980080077FF58BAEFFF759F9401BAF
:1015000002284FF00300F3D9FFE500BFD6F8901092
:10151000002821F00101C6F89010D6F8901021F0B3
:101520000401C6F8901000F07B80FFF741F90546F2
:1015300041F28837D6F89000800700F18380FFF7EA
:1015400037F9401BB842F5D9032003B0BDE8F0835A
:101550003168002821F480313160316821F4802124
:10156000316000F08580FFF723F90546306880037D
:101570003FF513AEFFF71CF9401B64284FF0030042
:10158000F4D9C2E520F480703060FFF711F9054608
:10159000306840057FF532AEFFF70AF9401B02289C
:1015A0004FF00300F4D9B0E5A5F17000B0FA80F077
:1015B0004009802D08BF022001E000BF002042F258
:1015C0000001C4F202010A6822F0070202440A6024
:1015D000096801F00701814240F08480306840F0E2
:1015E000080030603068D4E9072120F0F00008439B
:1015F0003060706820F47F4040EA022070605FE055
:10160000FFF708FAB0F5007F06D1812D40D3012005
:10161000A02D88BF022045E0802D3BD9032041E06A
:10162000FFF7C6F8054641F28837D6F890008007E4
:1016300008D5FFF7BDF8401BB8424FF00300F4D9BE
:1016400063E500BFB8F1000F7FF4DEADB06D20F0B0
:101650008050B065D8E500BFF0684FF6FC71CFF65A
:10166000EE610840F060002003B0BDE8F08300BFE9
:10167000FFF79EF80546306880037FF58EADFFF7D3
:1016800097F8401B64284FF00300F4D93DE500BFF4
:10169000002007E0A5F17000B0FA80F04009802D2D
:1016A00008BF022042F20001C4F202010A6822F0DF
:1016B000070202440A60096801F00701814211D162
:1016C000B068F16810F00C0005D00C282AD101F0A8
:1016D0000301012926D13168090707D4D6F89410EF
:1016E000090A05E0012003B0BDE8F083316809096B
:1016F00043F2307201F00F01C0F6000252F82110DF
:1017000000280A4618BF00220C2837D1F06800F0E4
:101710000300022810D0032804BF41F20021C0F2C8
:101720007A010DE004281FD0082823D141F20022BD
:10173000C0F27A0222E000BF42F20041C0F2F4019E
:10174000F068F268C0F30210C2F306225143F26857
:101750000130B1FBF0F0C2F34161022202EB410122
:10176000B0FBF1F20AE000BF42F20042C0F2F40224
:1017700004E000BF002200210C28C7D0B06843F26B
:101780001671C0F30310C0F60001085C00F01F00E2
:1017900022FA00F140F20400C2F2000040F2080216
:1017A0000068C2F200021160FFF75EF800287FF4C3
:1017B000ACAC6DE4F06848F28C01C0F29D1104F10C
:1017C0002C0700EA010C8ECF6FF00F00D4E90F5404
:1017D00000EB02100022CFF6E07241EA0C0102EAAF
:1017E00005520843A2F500124FF07E4540EA03205F
:1017F00005EA0465104305F17E4540EAC7602843C9
:10180000F060306840F080703060F06840F08070C8
:10181000F060FEF7CDFF04463068800108D4FEF783
:10182000C7FF001B02284FF00300F5D96DE400BF8D
:10183000002003B0BDE8F083411E0020B0EB116F23
:101840001CBF012070474EF21002CEF20002516020
:101850004EF62351CEF20001F0230B700721906069
:10186000116070477047000070470000704700002B
:10187000B0B501680446C8690D6840F62F028B6850
:101880000240202A05F0200E0AD1BEF1000F07D039
:10189000A16E00293CD02046BDE8B040084700BFFB
:1018A00040F60F02104209D040F22012C0F200426E
:1018B00003F0010C2A4012EB0C0215D1226E012A12
:1018C00005D110F0100218BF15F0100222D1C2028B
:1018D00014D513F4800211D04FF4801220460A620E
:1018E000BDE8B040FFF7C0BFC20718BF15F4807253
:1018F00040F08E81820700F195819EE1010640F162
:10190000938015F0800100F08F80E16E0029C2D134
:10191000B0BD00BF102008628868400600F1BA80A0
:10192000B4F85800B4F85A10B4F85A20002A18BF76
:101930008842EDD0401A216851E8001F226821F446
:10194000907142E80013DBB1216851E8001F226862
:1019500021F4907142E8001393B1216851E8001F0F
:10196000226821F4907142E800134BB1216851E8DC
:10197000001F226821F4907142E80013002BDAD195
:10198000216851E8021F226821F0010142E8021398
:10199000DBB1216851E8021F226821F0010142E811
:1019A000021393B1216851E8021F226821F001015E
:1019B00042E802134BB1216851E8021F226821F06E
:1019C000010142E80213002BDAD12021C4F8801073
:1019D00000212166A166216851E8001F226821F0DC
:1019E000100142E80013DBB1216851E8001F2268B2
:1019F00021F0100142E8001393B1216851E8001F63
:101A0000226821F0100142E800134BB1216851E82F
:101A1000001F226821F0100142E80013002BDAD1E8
:101A2000022281B21AE200BF40067FF571AF15F0C5
:101A3000400008BFB0BD00BF206850E8000F21681B
:101A400020F0400041E80002DAB1206850E8000FC1
:101A5000216820F0400041E8000292B1206850E87F
:101A6000000F216820F0400041E800024AB12068E0
:101A700050E8000F216820F0400041E80002002AF1
:101A8000DAD120200021E0672046E166BDE8B040C1
:101A900000F024BC606F00684268B4F8583091B21E
:101AA000002900F0D381994280F0D081A4F85A2017
:101AB0000068800600F19E80206850E8000F2168D1
:101AC00020F4807041E80002DAB1206850E8000F8D
:101AD000216820F4807041E8000292B1206850E84B
:101AE000000F216820F4807041E800024AB12068AC
:101AF00050E8000F216820F4807041E80002002ABD
:101B0000DAD1206850E8020F216820F0010041E896
:101B10000202C2B3206850E8020F216820F00100E1
:101B200041E802027AB3206850E8020F216820F0F1
:101B3000010041E8020232B3206850E8020F216838
:101B400020F0010041E80202002ADAD11BE000BFC8
:101B5000206850E8020F216820F0400041E80202AE
:101B6000DAB1206850E8020F216820F0400041E817
:101B7000020292B1206850E8020F216820F0400074
:101B800041E802024AB1206850E8020F216820F0C3
:101B9000400041E80202002ADAD12020C4F8800087
:101BA00000202066206850E8000F216820F0100017
:101BB00041E80002DAB1206850E8000F216820F007
:101BC000100041E8000292B1206850E8000F21683F
:101BD00020F0100041E800024AB1206850E8000FF0
:101BE000216820F0100041E80002002ADAD1606F7D
:101BF000FEF798FC02206066B4F85800B4F85A105A
:101C0000401A81B22046BDE8B040FFF72BBE00BFAE
:101C100001220A62D4F8842042F00102C4F8842030
:101C200082070AD5BCF1000F07D002220A62D4F85D
:101C3000842042F00402C4F8842042070AD5BCF193
:101C4000000F07D004220A62D4F8842042F0020276
:101C5000C4F8842002070DD54EEA0C02B2FA82F2D3
:101C6000520907D108220A62D4F8842042F00802FF
:101C7000C4F8842002050BD515F0806208D04FF41B
:101C800000620A62D4F8842042F02002C4F8842062
:101C9000D4F88420002A3FF43BAE10F0200018BF97
:101CA000BEF1000F40F0CA80D4F88400896800F0CB
:101CB000280001F04001401806D12046FFF7D6FD6C
:101CC0000020C4F88400B0BD206850E8000F2168EF
:101CD00020F4907041E80002BAB3206850E8000F89
:101CE000216820F4907041E8000272B3206850E847
:101CF000000F216820F4907041E800022AB32068A8
:101D000050E8000F216820F4907041E80002002A9A
:101D1000DAD11AE0206850E8020F216820F00100B3
:101D200041E80202DAB1206850E8020F216820F091
:101D3000010041E8020292B1206850E8020F2168D8
:101D400020F0010041E802024AB1206850E8020F89
:101D5000216820F0010041E80202002ADAD1206E59
:101D6000012824D1206850E8000F216820F01000DD
:101D700041E80002DAB1206850E8000F216820F045
:101D8000100041E8000292B1206850E8000F21687D
:101D900020F0100041E800024AB1206850E8000F2E
:101DA000216820F0100041E80002002ADAD120204A
:101DB000C4F88000002020662168A066886840067C
:101DC00036D500BF206850E8020F216820F040009F
:101DD00041E80202DAB1206850E8020F216820F0E1
:101DE000400041E8020292B1206850E8020F2168E9
:101DF00020F0400041E802024AB1206850E8020F9A
:101E0000216820F0400041E80202002ADAD1606F28
:101E100070B142F61D11C0F600018163FEF7A8FB08
:101E200000283FF475AD606F816BBDE8B040084796
:101E30002046BDE8B040FFF719BD00BFA26E002AE2
:101E40003FF432AF2046904721682DE78B427FF464
:101E50005FAD006880067FF55BAD022220466266BA
:101E6000BDE8B040FFF7FEBC10B5C8B10446C06F76
:101E700028B9002084F87800204600F025F82420B6
:101E8000E0672068616A026822F00102026011B115
:101E9000204600F01BFC204600F0F6FE012801D190
:101EA000012010BD2168486820F49040486088688F
:101EB00020F02A008860086840F0010220460A608D
:101EC000BDE8104000F076BCF0B59BB004460020A1
:101ED0001A90CDE91800CDE9160001A85421FEF7AB
:101EE00072FA206844F20041C4F2000188423FD0F7
:101EF00043F60001C4F20101884271D10120019032
:101F000001A8FEF7A3FD002818BFFEF705FB41F26C
:101F10004C00C4F20200416941F4804141614169D1
:101F200001F4804100910099016841F001010160D4
:101F3000006816A900F00100009000984FF4C060FE
:101F40001690022017900020189003201990072067
:101F50001A904FF09040FEF74BFB25200021002205
:101F6000FEF7D6FC2520FEF7BFFC1BB0F0BD00BF7E
:101F7000022501A80195FEF769FD002818BFFEF7AC
:101F8000CBFA41F24C00C4F20200C16816AC41F435
:101F90000031C160C168002601F400310091009950
:101FA0000168032741F0010101600068214600F04B
:101FB0000100009000980420CDE9160507201A9032
:101FC0004FF0904018961997FEF712FB4FF400401F
:101FD00016A9E1C14FF0904021461A97FEF708FB81
:101FE0001BB0F0BD80B5D0F88030202B1CBF022084
:101FF00080BD00294FF0010318BF002A02D1184606
:1020000080BD00BF00230366D0F800C048F2000383
:10201000C4F200039C4533D0DCF804301B022FD5FA
:10202000036853E800CFD0F800E04CF080634EE83E
:10203000003CBCF1000F23D0036853E800CFD0F878
:1020400000E04CF080634EE8003CBCF1000F17D07C
:10205000036853E800CFD0F800E04CF080634EE80E
:10206000003CBCF1000F0BD0036853E800CFD0F860
:1020700000E04CF080634EE8003CBCF1000FCFD193
:1020800000F00EFF0023184680BD0000B0B50068C8
:1020900043F60001C4F20101884218BFB0BD40F20E
:1020A000700440F63C10C2F20004C2F20000214667
:1020B0000122002300F04AF86078012812D140F292
:1020C000D800C2F2000000F041F988BB217840F24C
:1020D000D800C2F2000000F0ADF920780A2827D11C
:1020E00024E000BF607818BB40F2D800C2F20000C4
:1020F00000F02CF9E0B901206070217840F2D8009E
:10210000C2F2000000F096F920780A280ED020785C
:102110003E280DD140F2D805C2F2000528460D2117
:1021200000F088F928460A2100F084F90020607048
:1021300040F6B40040F27001C2F20000C2F20001A9
:102140000122BDE8B040FFF74DBF00002DE9F0418E
:102150000446C06F20281CBF0220BDE8F0810D4658
:1021600000294FF0010000F0B6801646002A08BF93
:10217000BDE8F0810020C4F8840021209846E06783
:10218000FEF716FBA4F85060A4F85260A16806465A
:10219000B1F5805F02D1206900286BD02F46002561
:1021A000B4F8520000286BD018F101001CD0B8F12F
:1021B000000F3DD121680BE017F8010B0885B4F83A
:1021C00052000138A4F85200B4F85200002858D048
:1021D000C869000640F17A80002FEDD135F8020B76
:1021E00000276FF35F20E9E7216802E0C869000675
:1021F00009D4C869000606D4C86900065CBFC8696E
:102200005FEA0060F2D51FB117F8010B05E000BFCF
:1022100035F8020B00276FF35F200885B4F85200F1
:102220000138A4F85200B4F852000028E1D128E0A7
:10223000216800BFC869000608D4FEF7B9FA801B00
:10224000404545D821680868F4E700BF17B117F882
:10225000010B04E035F8020B00276FF35F200885BF
:10226000B4F852000138A4F85200B4F85200002823
:10227000E0D106E00027B4F8520000287FF494AFC4
:102280002168C86940061FD4B8F1000F1ED018F1AC
:1022900001000FD1C869400616D4C869400613D49E
:1022A000C869400610D4C86940064FF00000F1D557
:1022B0000FE000BFFEF77CFA801B404508D820687D
:1022C0000168C0694006F5D5002002E0FEF770FA0B
:1022D00003202021E167BDE8F08100007047000085
:1022E000FEE700000146002040F2D17C002300BF41
:1022F000CA181D336345107250729072D0721073F9
:1023000050739073D073107450749074D0741075AF
:1023100050759075D075107650769076D07610778F
:1023200050779077D07782F8200082F8210082F8E9
:10233000220082F8230082F82400D9D10022022052
:102340004A800A808A80CA807047000041880288DB
:10235000013A8A4202D10120704700BF4188B1F59D
:10236000FA6F02D100880028F5D0002070470000E5
:10237000F0B5ADF5FE7D054680880024002848D0E4
:102380000E460DF107070CE0D0B23C54A888314648
:102390000138A8803846FEF73FF800283ED0A888CC
:1023A000B0B3288869888842F9D0A8880028F6D078
:1023B00028886988884201D1002011E028882844B3
:1023C000007A2988013129802988B1F5FA6F88BF00
:1023D0002C800A288DF8070002D10120D5E700BF24
:1023E000012105E04A1CC9B278540A281146CBD015
:1023F0002A886B889A42F5D028882844007A2A884F
:1024000001322A802A88B2F5FA6F88BF2C80E9E76A
:10241000002420460DF5FE7DF0BD00BF01242046BE
:102420000DF5FE7DF0BD0000FEE70000FEE70000B8
:102430007047000042880388013B934202D1042088
:10244000704700BF4288B2F5FA6F02D10288002AB5
:10245000F5D042880244117242880132428042889B
:10246000B2F5FA6F84BF002242800A291CBF012006
:10247000704781880131818001207047F0B581B0BB
:1024800041F20007C4F20207FA680D4691070446BC
:1024900014D0F868216800F0030088424FF0010072
:1024A00040F09F80002900F09C80F8686168C0F3CC
:1024B00002100130884232D134E000BF2068032886
:1024C0000CD0022816D0012829D13968012211F038
:1024D000020182EA510116D120E000BF3968890368
:1024E00010D43968012211F4802182EA91410AD185
:1024F00014E000BF3968012211F4806182EA912161
:1025000001D10BE00021FA6863686FF00F0622F03A
:10251000730206EB03131A431043F86011B1012054
:1025200001B0F0BD386820F080603860FEF740F9F7
:10253000064600BF3868000106D5FEF739F9801B52
:102540000228F7D944E000BF012D0DD0F5B9386954
:1025500048F2FF01C0F2FF710840D4E9021240EADC
:10256000012040EAC26022E048F2FF013869CFF65C
:10257000FF112269002301F1B461CFF6E073084036
:10258000A16803EA0252A2F500120DE0386948F290
:10259000FF016269CFF6FF114FF07E430840A1684A
:1025A00003EA026202F17E4240EA012010433861F0
:1025B000386840F080603860FEF7FAF8054600BFE2
:1025C0003868000108D4FEF7F3F8401B0228F7D959
:1025D000032001B0F0BD00BFA0693969084338612C
:1025E000002001B0F0BD00007047000010B50446A7
:1025F000FDF7CAFE82B240F6B400C2F200002146E6
:102600004FF0FF33BDE81040FFF7A0BDFEF70EB955
:1026100010B596B005A804302421FDF7D4FE00249F
:102620004FF400700494CDE90244CDE90044FEF774
:10263000ABF928B1EFF3108072B600BFFEE700BF20
:10264000FEF7F0F941F29000C4F20200016821F0B7
:10265000180101601C206021059001200D910221CC
:102660000790CDE90A00CDE90F10119010201290CB
:102670000720CDE9130105A80C941591FEF7F4FC91
:1026800020B1EFF3108072B6FEE700BF0F2000907C
:10269000032001900020CDE902000490684601214A
:1026A000FEF716FB20B1EFF3108072B6FEE700BF15
:1026B000FEF7C2F916B010BD4EF68850CEF20000FB
:1026C000016841F4700101607047000080B5416A03
:1026D0000A070DD4CA0716D18A071FD44A0728D47F
:1026E000CA0631D48A063AD44A0658D542E000BF19
:1026F0000268D0F834C0536823F4004343EA0C0363
:102700005360CA07E8D00268D0F828C0536823F4A1
:10271000003343EA0C0353608A07DFD50268D0F820
:102720002CC0536823F4803343EA0C0353604A07F8
:10273000D6D50268D0F830C0536823F4802343EA2A
:102740000C035360CA06CDD50268D0F838C0936830
:1027500023F4805343EA0C0393608A06C4D50268CD
:10276000D0F83CC0936823F4005343EA0C03936011
:102770004A0614D50268D0F840C05368BCF5801FE3
:1027800023F4801343EA0C03536008D1D2F804C049
:10279000D0F844E02CF4C00343EA0E03536009066A
:1027A00058BF80BD0168806C4A6822F40022104343
:1027B000486080BDB0B582B004460020C4F88400F3
:1027C000FDF7F6FF216805460A68120735D56FF058
:1027D0007E4C20464FF4001100222B46CDF800C05D
:1027E00000F014FC40B300BF206850E8000F2168DF
:1027F00020F0800041E80002DAB1206850E8000FC4
:10280000216820F0800041E8000292B1206850E881
:10281000000F216820F0800041E800024AB12068E2
:1028200050E8000F216820F0800041E80002002AF3
:10283000DAD12020E0675FE021680868400761D5B1
:102840006FF07E4C20464FF4800100222B46CDF8DD
:1028500000C000F0DBFB002854D000BF206850E827
:10286000000F216820F4907041E80002E2B1206876
:1028700050E8000F216820F4907041E800029AB1FE
:10288000206850E8000F216820F4907041E80002B1
:1028900052B1206850E8000F216820F4907041E8A0
:1028A0000002002ADAD100BF206850E8020F216838
:1028B00020F0010041E80202DAB1206850E8020F7E
:1028C000216820F0010041E8020292B1206850E83E
:1028D000020F216820F0010041E802024AB120689D
:1028E00050E8020F216820F0010041E80202002AAE
:1028F000DAD12020C4F880000320002184F8781069
:1029000002B0B0BD2020E067C4F88000002020663F
:102910006066002184F8781002B0B0BD806A0021A2
:10292000A0F85A10A0F85210FEF7A0BFB0F85C2033
:102930000168D0F88030222B40F0C880898C436D2C
:10294000114023F8021B4365B0F85A100139A0F872
:102950005A10B0F85A10002918BF7047016851E8A2
:10296000001F026821F4907142E80013E3B101688E
:1029700051E8001F026821F4907142E800139BB1F6
:10298000016851E8001F026821F4907142E80013C9
:1029900053B1016851E8001F026821F4907142E8C8
:1029A0000013002BDAD100BF016851E8021F026852
:1029B00021F0010142E80213DBB1016851E8021F76
:1029C000026821F0010142E8021393B1016851E865
:1029D000021F026821F0010142E802134BB10168B5
:1029E00051E8021F026821F0010142E80213002BA6
:1029F000DAD12021C0F8801000218166416601688B
:102A000048F20002C4F20002914228D0496809024B
:102A100025D500BF016851E8001F026821F08061E0
:102A200042E80013DBB1016851E8001F026821F0A1
:102A3000806142E8001393B1016851E8001F026809
:102A400021F0806142E800134BB1016851E8001F9A
:102A5000026821F0806142E80013002BDAD1016E98
:102A6000012918BFFFF712BB00210166016851E878
:102A7000001F026821F0100142E80013DBB1016879
:102A800051E8001F026821F0100142E8001393B1E1
:102A9000016851E8001F026821F0100142E80013AC
:102AA0004BB1016851E8001F026821F0100142E8B3
:102AB0000013002BDAD10168CA69D20644BF102284
:102AC0000A62B0F85810FEF7CDBE00BF088B40F088
:102AD0000800088370470000B0F85C100268D0F866
:102AE0008030222B40F0CA80928C436D11401970C7
:102AF000416D01314165B0F85A100139A0F85A1002
:102B0000B0F85A10002918BF704700BF016851E89B
:102B1000001F026821F4907142E80013E3B10168DC
:102B200051E8001F026821F4907142E800139BB144
:102B3000016851E8001F026821F4907142E8001317
:102B400053B1016851E8001F026821F4907142E816
:102B50000013002BDAD100BF016851E8021F0268A0
:102B600021F0010142E80213DBB1016851E8021FC4
:102B7000026821F0010142E8021393B1016851E8B3
:102B8000021F026821F0010142E802134BB1016803
:102B900051E8021F026821F0010142E80213002BF4
:102BA000DAD12021C0F880100021816641660168D9
:102BB00048F20002C4F20002914228D0496809029A
:102BC00025D500BF016851E8001F026821F080612F
:102BD00042E80013DBB1016851E8001F026821F0F0
:102BE000806142E8001393B1016851E8001F026858
:102BF00021F0806142E800134BB1016851E8001FE9
:102C0000026821F0806142E80013002BDAD1016EE6
:102C1000012918BFFFF73ABA00210166016851E89F
:102C2000001F026821F0100142E80013DBB10168C7
:102C300051E8001F026821F0100142E8001393B12F
:102C4000016851E8001F026821F0100142E80013FA
:102C50004BB1016851E8001F026821F0100142E801
:102C60000013002BDAD10168CA69D20644BF1022D2
:102C70000A62B0F85810FEF7F5BD00BF108B40F0A7
:102C80000800108370470000B0B5054605F1080440
:102C90001ECC0068194341EA0403D5F81CE004681F
:102CA00046F6F311CEF6FF712140194341EA0E01B9
:102CB0000160416848F2000C21F440511143416029
:102CC000AA69C4F2000C60451CBF296A0A438168E6
:102CD00021F43061114344F20042C4F200029042F8
:102CE00081600FD0604515D043F60001C4F20101A8
:102CF00088424BD141F28801C4F202010B6864A200
:102D000012E000BF41F28801C4F2020109688B0899
:102D100006E000BF41F28801C4F2020109688B0A93
:102D200043F26072C0F6000203F0030152F8213052
:102D3000604542F20040C0F2F4002ED0BEF5004FD4
:102D400012D1082B4FF0010100F29D80DFE803F063
:102D5000065C689B609B9B9B660000BFFEF7F6F8D5
:102D6000002840F05D8056E0082B4FF0010100F292
:102D70008A80DFE803F0056B77886F8888887500A4
:102D8000FEF7E4F8002840F06D8066E0102360450F
:102D900042F20040C0F2F400D0D1082B4FF0010104
:102DA00000F27180DFE803F0066F126F0A6F6F6F39
:102DB000100000BFFEF7CAF840B902E0FEF7F2F8D3
:102DC00020B900215FE000BF4FF400406A6802EBC9
:102DD000420188424FF0010155D31303984252D863
:102DE000010E000210EB520041F100010023FDF73B
:102DF0003DFA4FF60052A0F54071C0F20F02914229
:102E00003BD301213FE000BFFEF7B6F840B902E036
:102E1000FEF7C8F820B9002135E000BF4FF40040AC
:102E200069684A0802EB4000B0FBF1F04FF6EF7220
:102E3000A0F11001914207D84FF6F0710140C0F3A4
:102E40004200084419E000BF01211CE0FEF794F89D
:102E500040B902E0FEF7A6F820B9002113E000BF58
:102E60004FF4004069684FF6EF7200EB5100B0FB81
:102E7000F1F0A0F11001914204D82968C860002146
:102E800001E000BF012100220846AA66EA66B0BD43
:102E90000100000004000000020000000800000023
:102EA0004165A0F85820A0F85A2081680022826667
:102EB00051B1B1F1805F0BD0B1F5805F0CD10169E8
:102EC00021B940F2FF110AE0016939B9FF2106E09A
:102ED000016919B13F2102E0002100E07F21A0F843
:102EE0005C100021C0F884102221C0F8801000BFBF
:102EF000016851E8021F026841F0010142E8021333
:102F0000DBB1016851E8021F026841F0010142E8AB
:102F1000021393B1016851E8021F026841F00101F8
:102F200042E802134BB1016851E8021F026841F008
:102F3000010142E80213002BDAD182680169B2F57F
:102F4000805F07D1A1B342F6D921C0F600018166A6
:102F500006E000BF42F6D922C0F60002826669B3DD
:102F6000016851E8001F026841F4907142E80013C3
:102F7000002B48D0016851E8001F026841F49071AD
:102F800042E80013002B3ED0016851E8001F0268A0
:102F900041F4907142E80013ABB3016851E8001F9F
:102FA000026841F4907142E80013002BD8D12AE066
:102FB00042F62D11C0F60001816600BF016851E89C
:102FC000001F026841F0200142E80013DBB10168F4
:102FD00051E8001F026841F0200142E8001393B15C
:102FE000016851E8001F026841F0200142E8001327
:102FF0004BB1016851E8001F026841F0200142E82E
:103000000013002BDAD10020704700002DE9F041B9
:10301000804600681546C2690E461140891BB1FA08
:1030200081F14909A94223D1069C2CB3611C29D105
:10303000C1693140891BB1FA81F14909A94217D10F
:10304000C1693140891BB1FA81F14909A9420FD107
:10305000C1693140891BB1FA81F14909A94207D1FF
:10306000C1693140891BB1FA81F14909A942DFD018
:103070000020BDE8F08100BFFDF79AFB0320BDE80A
:10308000F08100BF1F4607E0C0693040801BB0FAE6
:1030900080F04009A842EBD1FDF78AFBC01BA0429B
:1030A00000F2B080D8F8000001684907ECD5402E46
:1030B000EAD0802EE8D0C169090700F1A780C16974
:1030C0000905E1D54FF400610162D8F8000050E82D
:1030D000000FD8F8001020F4907041E80002002A98
:1030E00043D0D8F8000050E8000FD8F8001020F4C2
:1030F000907041E80002C2B3D8F8000050E8000F19
:10310000D8F8001020F4907041E800026AB3D8F8B3
:10311000000050E8000FD8F8001020F4907041E84B
:103120000002002AD1D120E0D8F8000050E8020FB8
:10313000D8F8001020F0010041E802020AB3D8F8E4
:10314000000050E8020FD8F8001020F0010041E81C
:103150000202B2B1D8F8000050E8020FD8F800100F
:1031600020F0010041E802025AB1D8F8000050E80E
:10317000020FD8F8001020F0010041E80202002AF6
:10318000D2D1D8F8600001282CD1D8F8000050E83E
:10319000000FD8F8001020F0100041E800020AB338
:1031A000D8F8000050E8000FD8F8001020F0100008
:1031B00041E80002B2B1D8F8000050E8000FD8F89A
:1031C000001020F0100041E800025AB1D8F80000C9
:1031D00050E8000FD8F8001020F0100041E800027D
:1031E000002AD2D120200021C8F88000C8F8601041
:1031F000C8F86810C8F88400032088F87810BDE883
:10320000F08100BF0320BDE8F08100BF082101620A
:10321000D8F8000050E8000FD8F8001020F49070A3
:1032200041E80002002A44D0D8F8000050E8000F1E
:10323000D8F8001020F4907041E80002CAB3D8F822
:10324000000050E8000FD8F8001020F4907041E81A
:10325000000272B3D8F8000050E8000FD8F8001050
:1032600020F4907041E80002002AD1D121E000BF93
:10327000D8F8000050E8020FD8F8001020F0010044
:1032800041E802020AB3D8F8000050E8020FD8F86B
:10329000001020F0010041E80202B2B1D8F80000AD
:1032A00050E8020FD8F8001020F0010041E80202B7
:1032B0005AB1D8F8000050E8020FD8F8001020F0FA
:1032C000010041E80202002AD2D1D8F860000128AA
:1032D0002CD1D8F8000050E8000FD8F8001020F0EA
:1032E000100041E800020AB3D8F8000050E8000FCF
:1032F000D8F8001020F0100041E80002B2B1D8F870
:10330000000050E8000FD8F8001020F0100041E84D
:1033100000025AB1D8F8000050E8000FD8F80010A9
:1033200020F0100041E80002002AD2D12020C8F885
:10333000800000200821C8F86000C8F86800C8F8BC
:10334000841088F878000120BDE8F08140F6B400D0
:10335000C2F20000FEF78CBAFEE7000080B582B032
:10336000019040F63C10C2F2000001A901224FF08A
:10337000FF33FEF7EBFE019802B080BD86B043F24A
:103380000005C4F20005FDF75FFAFFF741F90026DA
:1033900041F24C000596C4F20200016840F200447C
:1033A00041F0040101600168C4F6000401F0040169
:1033B000009100990168012241F00101016001685A
:1033C000012701F0010100910099016841F002011B
:1033D00001600068022100F0020000900098204681
:1033E000FDF7E0F9204608210022FDF7DBF90A206D
:1033F000CDE9010701A92046CDE90366FDF7F8F8FC
:1034000040F27004C2F20004204640F8045F062136
:1034100040F6FF72C0E90112C260FDF7CFF928B192
:10342000EFF3108072B600BFFEE700BF40F6B400B5
:1034300005F58431C2F200004FF4E1374FF00C087B
:10344000C0E90017C0E90266C0E90468C0E9066681
:10345000C0E90866FEF708FD20B1EFF3108072B6F0
:10346000FEE700BF40F63C1005F5A051C2F2000097
:103470000022C0E90017C0E90222C0E90428C0E91F
:103480000622C0E90822FEF7EFFC28B1EFF3108016
:1034900072B600BFFEE700BF73A0FCF75FFF40F20B
:1034A000D800C2F20000FEF71DFF022802D070A073
:1034B000FCF754FF4FF47A70FDF786F840F6B4003D
:1034C000C2F2000021460122FEF78CFD04342046A2
:1034D000FDF7A6F971A0FFF789F840F2D80543F28D
:1034E0009876C2F20005C0F6000600BF28463146B5
:1034F000FEF73EFF0028F9D06420FDF765F869A0CB
:10350000FFF774F840F2D80543F2C476C2F2000522
:10351000C0F6000628463146FEF72AFF0028F9D0FB
:103520004FF47A70FDF750F861A0FFF75FF840F2B2
:10353000D80543F2C476C2F20005C0F6000600BF0B
:1035400028463146FEF714FF0028F9D04FF47A7070
:10355000FDF73AF85AA0FFF749F840F2D80543F2D0
:103560009876C2F20005C0F6000600BF2846314634
:10357000FEF7FEFE0028F9D06420FDF725F854A0E0
:10358000FFF734F840F2D80543F29876C2F200050E
:10359000C0F6000628463146FEF7EAFE0028F9D0BC
:1035A0006420FDF711F84FA0FFF720F840F2D8058E
:1035B00043F29876C2F20005C0F60006284631466E
:1035C000FEF7D6FE0028F9D06420FCF7FDFF43F299
:1035D0007070C0F60000FFF709F840F2D80543F21A
:1035E0009876C2F20005C0F6000600BF28463146B4
:1035F000FEF7BEFE0028F9D06420FCF7E5FF43F299
:103600008A70C0F60000FEF7F1FF40F2D80543F2E1
:10361000AE76C2F20005C0F6000600BF284631466D
:10362000FEF7A6FE0028F9D06420FCF7CDFF43F298
:103630009D70C0F60000FEF7D9FF40F2D80543F2B6
:103640009876C2F20005C0F6000600BF2846314653
:10365000FEF78EFE0028F9D06420FCF7B5FF00BF0E
:103660002046FDF7DDF8FBE75265626F6F740D00D1
:10367000496E697469616C697A6174696F6E206FF3
:10368000662043697263756C617242756666657225
:10369000206661696C6564210D00000041540D0ACB
:1036A0000000000041542B5253540D0A000000004A
:1036B00041542B524553544F52450D0A000000000F
:1036C00041542B424C45494E49543D320D0A0000AD
:1036D00041542B424C454741545453535256435244
:1036E000450D0A0041542B424C4547415454535315
:1036F000525653544152540D0A000000F1EE100A84
:103700004FF6FF71C0F2C03120EA010040F0407076
:10371000E1EE100A70470000000000000000010206
:10372000030406070809000000000102030400006A
:10373000A0860100400D0300801A060000350C0031
:1037400040420F0080841E0000093D0000127A00F4
:103750000024F40000366E010048E801006CDC0231
:10376000000000000400000002000000080000004B
:1037700041542B424C454E414D453D22476C7563AB
:103780006F4D65746572220D0A0041542B424C4501
:103790004E414D453F0D0A004F4B0D0A0041542B41
:1037A000424C4541445653544152540D0A002B4259
:1037B0004C454E414D453A476C75636F4D65746598
:1037C000720D0A0072656164790D0A00F037000815
:1037D0000000002010000000C801000800380008A8
:1037E00010000020B80F0000E401000800000000F5
:1037F000010000001000000000093D000000000072
:040000050800018D61
:00000001FF
